{
    "_format": "hh-sol-artifact-1",
    "contractName": "CryptoDevsDAO",
    "sourceName": "contracts/CryptoDevsDAO.sol",
    "abi": [
        {
            "inputs": [
                {
                    "internalType": "address",
                    "name": "_nftMarketplace",
                    "type": "address"
                },
                {
                    "internalType": "address",
                    "name": "_cryptoDevsNFT",
                    "type": "address"
                }
            ],
            "stateMutability": "payable",
            "type": "constructor"
        },
        {
            "anonymous": false,
            "inputs": [
                {
                    "indexed": true,
                    "internalType": "address",
                    "name": "previousOwner",
                    "type": "address"
                },
                {
                    "indexed": true,
                    "internalType": "address",
                    "name": "newOwner",
                    "type": "address"
                }
            ],
            "name": "OwnershipTransferred",
            "type": "event"
        },
        {
            "stateMutability": "payable",
            "type": "fallback"
        },
        {
            "inputs": [
                {
                    "internalType": "uint256",
                    "name": "_nftTokenId",
                    "type": "uint256"
                }
            ],
            "name": "createProposal",
            "outputs": [
                {
                    "internalType": "uint256",
                    "name": "",
                    "type": "uint256"
                }
            ],
            "stateMutability": "nonpayable",
            "type": "function"
        },
        {
            "inputs": [
                {
                    "internalType": "uint256",
                    "name": "proposalIndex",
                    "type": "uint256"
                }
            ],
            "name": "executeProposal",
            "outputs": [],
            "stateMutability": "nonpayable",
            "type": "function"
        },
        {
            "inputs": [],
            "name": "numProposals",
            "outputs": [
                {
                    "internalType": "uint256",
                    "name": "",
                    "type": "uint256"
                }
            ],
            "stateMutability": "view",
            "type": "function"
        },
        {
            "inputs": [],
            "name": "owner",
            "outputs": [
                {
                    "internalType": "address",
                    "name": "",
                    "type": "address"
                }
            ],
            "stateMutability": "view",
            "type": "function"
        },
        {
            "inputs": [
                {
                    "internalType": "uint256",
                    "name": "",
                    "type": "uint256"
                }
            ],
            "name": "proposals",
            "outputs": [
                {
                    "internalType": "uint256",
                    "name": "nftTokenId",
                    "type": "uint256"
                },
                {
                    "internalType": "uint256",
                    "name": "deadline",
                    "type": "uint256"
                },
                {
                    "internalType": "uint256",
                    "name": "yayVotes",
                    "type": "uint256"
                },
                {
                    "internalType": "uint256",
                    "name": "nayVotes",
                    "type": "uint256"
                },
                {
                    "internalType": "bool",
                    "name": "executed",
                    "type": "bool"
                }
            ],
            "stateMutability": "view",
            "type": "function"
        },
        {
            "inputs": [],
            "name": "renounceOwnership",
            "outputs": [],
            "stateMutability": "nonpayable",
            "type": "function"
        },
        {
            "inputs": [
                {
                    "internalType": "address",
                    "name": "newOwner",
                    "type": "address"
                }
            ],
            "name": "transferOwnership",
            "outputs": [],
            "stateMutability": "nonpayable",
            "type": "function"
        },
        {
            "inputs": [
                {
                    "internalType": "uint256",
                    "name": "proposalIndex",
                    "type": "uint256"
                },
                {
                    "internalType": "enum CryptoDevsDAO.Vote",
                    "name": "vote",
                    "type": "uint8"
                }
            ],
            "name": "voteOnProposal",
            "outputs": [],
            "stateMutability": "nonpayable",
            "type": "function"
        },
        {
            "inputs": [],
            "name": "withdrawEther",
            "outputs": [],
            "stateMutability": "nonpayable",
            "type": "function"
        },
        {
            "stateMutability": "payable",
            "type": "receive"
        }
    ],
    "bytecode": "0x6080604052604051620019e5380380620019e58339818101604052810190620000299190620001b6565b620000496200003d620000d360201b60201c565b620000db60201b60201c565b81600360006101000a81548173ffffffffffffffffffffffffffffffffffffffff021916908373ffffffffffffffffffffffffffffffffffffffff16021790555080600460006101000a81548173ffffffffffffffffffffffffffffffffffffffff021916908373ffffffffffffffffffffffffffffffffffffffff160217905550505062000245565b600033905090565b60008060009054906101000a900473ffffffffffffffffffffffffffffffffffffffff169050816000806101000a81548173ffffffffffffffffffffffffffffffffffffffff021916908373ffffffffffffffffffffffffffffffffffffffff1602179055508173ffffffffffffffffffffffffffffffffffffffff168173ffffffffffffffffffffffffffffffffffffffff167f8be0079c531659141344cd1fd0a4f28419497f9722a3daafe3b4186f6b6457e060405160405180910390a35050565b600081519050620001b0816200022b565b92915050565b60008060408385031215620001ca57600080fd5b6000620001da858286016200019f565b9250506020620001ed858286016200019f565b9150509250929050565b600062000204826200020b565b9050919050565b600073ffffffffffffffffffffffffffffffffffffffff82169050919050565b6200023681620001f7565b81146200024257600080fd5b50565b61179080620002556000396000f3fe60806040526004361061008a5760003560e01c8063715018a611610059578063715018a6146101655780637362377b1461017c5780638da5cb5b14610193578063efafb22e146101be578063f2fde38b146101e757610091565b8063013cf08b146100935780630d61b519146100d4578063400e3949146100fd5780635a43dc001461012857610091565b3661009157005b005b34801561009f57600080fd5b506100ba60048036038101906100b5919061104b565b610210565b6040516100cb9594939291906113c0565b60405180910390f35b3480156100e057600080fd5b506100fb60048036038101906100f6919061104b565b610253565b005b34801561010957600080fd5b506101126105c8565b60405161011f91906113a5565b60405180910390f35b34801561013457600080fd5b5061014f600480360381019061014a919061104b565b6105ce565b60405161015c91906113a5565b60405180910390f35b34801561017157600080fd5b5061017a61080d565b005b34801561018857600080fd5b50610191610895565b005b34801561019f57600080fd5b506101a8610961565b6040516101b59190611241565b60405180910390f35b3480156101ca57600080fd5b506101e560048036038101906101e0919061109d565b61098a565b005b3480156101f357600080fd5b5061020e60048036038101906102099190610ff9565b610dcc565b005b60016020528060005260406000206000915090508060000154908060010154908060020154908060030154908060040160009054906101000a900460ff16905085565b6000600460009054906101000a900473ffffffffffffffffffffffffffffffffffffffff1673ffffffffffffffffffffffffffffffffffffffff166370a08231336040518263ffffffff1660e01b81526004016102b09190611241565b60206040518083038186803b1580156102c857600080fd5b505afa1580156102dc573d6000803e3d6000fd5b505050506040513d601f19601f820116820180604052508101906103009190611074565b11610340576040517f08c379a000000000000000000000000000000000000000000000000000000000815260040161033790611345565b60405180910390fd5b80426001600083815260200190815260200160002060010154111561039a576040517f08c379a000000000000000000000000000000000000000000000000000000000815260040161039190611285565b60405180910390fd5b600015156001600083815260200190815260200160002060040160009054906101000a900460ff16151514610404576040517f08c379a00000000000000000000000000000000000000000000000000000000081526004016103fb906112c5565b60405180910390fd5b60006001600084815260200190815260200160002090508060030154816002015411156105a6576000600360009054906101000a900473ffffffffffffffffffffffffffffffffffffffff1673ffffffffffffffffffffffffffffffffffffffff166398d5fdca6040518163ffffffff1660e01b815260040160206040518083038186803b15801561049557600080fd5b505afa1580156104a9573d6000803e3d6000fd5b505050506040513d601f19601f820116820180604052508101906104cd9190611074565b905080471015610512576040517f08c379a000000000000000000000000000000000000000000000000000000000815260040161050990611385565b60405180910390fd5b600360009054906101000a900473ffffffffffffffffffffffffffffffffffffffff1673ffffffffffffffffffffffffffffffffffffffff1663efef39a18284600001546040518363ffffffff1660e01b815260040161057291906113a5565b6000604051808303818588803b15801561058b57600080fd5b505af115801561059f573d6000803e3d6000fd5b5050505050505b60018160040160006101000a81548160ff021916908315150217905550505050565b60025481565b600080600460009054906101000a900473ffffffffffffffffffffffffffffffffffffffff1673ffffffffffffffffffffffffffffffffffffffff166370a08231336040518263ffffffff1660e01b815260040161062c9190611241565b60206040518083038186803b15801561064457600080fd5b505afa158015610658573d6000803e3d6000fd5b505050506040513d601f19601f8201168201806040525081019061067c9190611074565b116106bc576040517f08c379a00000000000000000000000000000000000000000000000000000000081526004016106b390611345565b60405180910390fd5b600360009054906101000a900473ffffffffffffffffffffffffffffffffffffffff1673ffffffffffffffffffffffffffffffffffffffff166396e494e8836040518263ffffffff1660e01b815260040161071791906113a5565b60206040518083038186803b15801561072f57600080fd5b505afa158015610743573d6000803e3d6000fd5b505050506040513d601f19601f820116820180604052508101906107679190611022565b6107a6576040517f08c379a000000000000000000000000000000000000000000000000000000000815260040161079d90611305565b60405180910390fd5b6000600160006002548152602001908152602001600020905082816000018190555061012c426107d69190611424565b8160010181905550600260008154809291906107f1906114f6565b91905055506001600254610805919061147a565b915050919050565b610815610ec4565b73ffffffffffffffffffffffffffffffffffffffff16610833610961565b73ffffffffffffffffffffffffffffffffffffffff1614610889576040517f08c379a000000000000000000000000000000000000000000000000000000000815260040161088090611365565b60405180910390fd5b6108936000610ecc565b565b61089d610ec4565b73ffffffffffffffffffffffffffffffffffffffff166108bb610961565b73ffffffffffffffffffffffffffffffffffffffff1614610911576040517f08c379a000000000000000000000000000000000000000000000000000000000815260040161090890611365565b60405180910390fd5b610919610961565b73ffffffffffffffffffffffffffffffffffffffff166108fc479081150290604051600060405180830381858888f1935050505015801561095e573d6000803e3d6000fd5b50565b60008060009054906101000a900473ffffffffffffffffffffffffffffffffffffffff16905090565b6000600460009054906101000a900473ffffffffffffffffffffffffffffffffffffffff1673ffffffffffffffffffffffffffffffffffffffff166370a08231336040518263ffffffff1660e01b81526004016109e79190611241565b60206040518083038186803b1580156109ff57600080fd5b505afa158015610a13573d6000803e3d6000fd5b505050506040513d601f19601f82011682018060405250810190610a379190611074565b11610a77576040517f08c379a0000000000000000000000000000000000000000000000000000000008152600401610a6e90611345565b60405180910390fd5b8142600160008381526020019081526020016000206001015411610ad0576040517f08c379a0000000000000000000000000000000000000000000000000000000008152600401610ac7906112e5565b60405180910390fd5b60006001600085815260200190815260200160002090506000600460009054906101000a900473ffffffffffffffffffffffffffffffffffffffff1673ffffffffffffffffffffffffffffffffffffffff166370a08231336040518263ffffffff1660e01b8152600401610b449190611241565b60206040518083038186803b158015610b5c57600080fd5b505afa158015610b70573d6000803e3d6000fd5b505050506040513d601f19601f82011682018060405250810190610b949190611074565b90506000805b82811015610ccb576000600460009054906101000a900473ffffffffffffffffffffffffffffffffffffffff1673ffffffffffffffffffffffffffffffffffffffff16632f745c5933846040518363ffffffff1660e01b8152600401610c0192919061125c565b60206040518083038186803b158015610c1957600080fd5b505afa158015610c2d573d6000803e3d6000fd5b505050506040513d601f19601f82011682018060405250810190610c519190611074565b90506000151585600501600083815260200190815260200160002060009054906101000a900460ff1615151415610cb7578280610c8d906114f6565b9350506001151585600501600083815260200190815260200160002060009054906101000a905050505b508080610cc3906114f6565b915050610b9a565b5060008111610d0f576040517f08c379a0000000000000000000000000000000000000000000000000000000008152600401610d0690611325565b60405180910390fd5b60006001811115610d49577f4e487b7100000000000000000000000000000000000000000000000000000000600052602160045260246000fd5b856001811115610d82577f4e487b7100000000000000000000000000000000000000000000000000000000600052602160045260246000fd5b1415610da85780836002016000828254610d9c9190611424565b92505081905550610dc4565b80836003016000828254610dbc9190611424565b925050819055505b505050505050565b610dd4610ec4565b73ffffffffffffffffffffffffffffffffffffffff16610df2610961565b73ffffffffffffffffffffffffffffffffffffffff1614610e48576040517f08c379a0000000000000000000000000000000000000000000000000000000008152600401610e3f90611365565b60405180910390fd5b600073ffffffffffffffffffffffffffffffffffffffff168173ffffffffffffffffffffffffffffffffffffffff161415610eb8576040517f08c379a0000000000000000000000000000000000000000000000000000000008152600401610eaf906112a5565b60405180910390fd5b610ec181610ecc565b50565b600033905090565b60008060009054906101000a900473ffffffffffffffffffffffffffffffffffffffff169050816000806101000a81548173ffffffffffffffffffffffffffffffffffffffff021916908373ffffffffffffffffffffffffffffffffffffffff1602179055508173ffffffffffffffffffffffffffffffffffffffff168173ffffffffffffffffffffffffffffffffffffffff167f8be0079c531659141344cd1fd0a4f28419497f9722a3daafe3b4186f6b6457e060405160405180910390a35050565b600081359050610f9f81611705565b92915050565b600081519050610fb48161171c565b92915050565b600081359050610fc981611733565b92915050565b600081359050610fde81611743565b92915050565b600081519050610ff381611743565b92915050565b60006020828403121561100b57600080fd5b600061101984828501610f90565b91505092915050565b60006020828403121561103457600080fd5b600061104284828501610fa5565b91505092915050565b60006020828403121561105d57600080fd5b600061106b84828501610fcf565b91505092915050565b60006020828403121561108657600080fd5b600061109484828501610fe4565b91505092915050565b600080604083850312156110b057600080fd5b60006110be85828601610fcf565b92505060206110cf85828601610fba565b9150509250929050565b6110e2816114ae565b82525050565b6110f1816114c0565b82525050565b6000611104601583611413565b915061110f8261156e565b602082019050919050565b6000611127602683611413565b915061113282611597565b604082019050919050565b600061114a601983611413565b9150611155826115e6565b602082019050919050565b600061116d601183611413565b91506111788261160f565b602082019050919050565b6000611190601083611413565b915061119b82611638565b602082019050919050565b60006111b3600d83611413565b91506111be82611661565b602082019050919050565b60006111d6601083611413565b91506111e18261168a565b602082019050919050565b60006111f9602083611413565b9150611204826116b3565b602082019050919050565b600061121c601083611413565b9150611227826116dc565b602082019050919050565b61123b816114ec565b82525050565b600060208201905061125660008301846110d9565b92915050565b600060408201905061127160008301856110d9565b61127e6020830184611232565b9392505050565b6000602082019050818103600083015261129e816110f7565b9050919050565b600060208201905081810360008301526112be8161111a565b9050919050565b600060208201905081810360008301526112de8161113d565b9050919050565b600060208201905081810360008301526112fe81611160565b9050919050565b6000602082019050818103600083015261131e81611183565b9050919050565b6000602082019050818103600083015261133e816111a6565b9050919050565b6000602082019050818103600083015261135e816111c9565b9050919050565b6000602082019050818103600083015261137e816111ec565b9050919050565b6000602082019050818103600083015261139e8161120f565b9050919050565b60006020820190506113ba6000830184611232565b92915050565b600060a0820190506113d56000830188611232565b6113e26020830187611232565b6113ef6040830186611232565b6113fc6060830185611232565b61140960808301846110e8565b9695505050505050565b600082825260208201905092915050565b600061142f826114ec565b915061143a836114ec565b9250827fffffffffffffffffffffffffffffffffffffffffffffffffffffffffffffffff0382111561146f5761146e61153f565b5b828201905092915050565b6000611485826114ec565b9150611490836114ec565b9250828210156114a3576114a261153f565b5b828203905092915050565b60006114b9826114cc565b9050919050565b60008115159050919050565b600073ffffffffffffffffffffffffffffffffffffffff82169050919050565b6000819050919050565b6000611501826114ec565b91507fffffffffffffffffffffffffffffffffffffffffffffffffffffffffffffffff8214156115345761153361153f565b5b600182019050919050565b7f4e487b7100000000000000000000000000000000000000000000000000000000600052601160045260246000fd5b7f444541444c494e455f4e4f545f45584345454445440000000000000000000000600082015250565b7f4f776e61626c653a206e6577206f776e657220697320746865207a65726f206160008201527f6464726573730000000000000000000000000000000000000000000000000000602082015250565b7f50524f504f53414c5f414c52454144595f455845435554454400000000000000600082015250565b7f444541444c494e455f4558434545444544000000000000000000000000000000600082015250565b7f4e46545f4e4f545f464f525f53414c4500000000000000000000000000000000600082015250565b7f414c52454144595f564f54454400000000000000000000000000000000000000600082015250565b7f4e4f545f415f44414f5f4d454d42455200000000000000000000000000000000600082015250565b7f4f776e61626c653a2063616c6c6572206973206e6f7420746865206f776e6572600082015250565b7f4e4f545f454e4f5547485f46554e445300000000000000000000000000000000600082015250565b61170e816114ae565b811461171957600080fd5b50565b611725816114c0565b811461173057600080fd5b50565b6002811061174057600080fd5b50565b61174c816114ec565b811461175757600080fd5b5056fea26469706673582212203f71d19825b2fa8b48ead2184573e5c20dc84f28b792e2e88c2b0ee9c7d7c23564736f6c63430008040033",
    "linkReferences": {},
    "deployedLinkReferences": {}
}